:100000000C9428010C9459010C9459010C94590139
:100010000C9459010C9459010C9459010C945901F8
:100020000C9459010C9459010C9459010C945901E8
:100030000C9459010C9459010C9459010C945901D8
:100040000C9459010C9459010C9459010C945901C8
:100050000C9459010C9459010C9459010C94AF0360
:100060000C9459010C9479030C944F030C9459018E
:100070000C9459010C9459010C9459010C94590198
:100080000C9459010C9459010C9459010C94590188
:100090000C9459010C9459010C9459010C94590178
:1000A0000C9459010C9459010C9459010C94590168
:1000B0000C9459010C9459010C9459010C94590158
:1000C0000C9459010C9459010C9459010C94590148
:1000D0000C9459010C9459010C9459010C94590138
:1000E0000C9459010C9404060C9424060C943102CF
:1000F0000C94EB010C9448050C94E9050C94E5056F
:100100000C94F1050C944D050C9437060C940806DC
:100110000C945B010C9420060C947E020C948801D4
:100120000C9412060C94FE050C94ED050C949701AA
:100130000C94F4050C941A060C940C060C94FA0515
:100140000C94F9010C9416060000210024002700ED
:100150002A002D00300033000101000004010701D6
:100160000A0100002200250028002B002E0031008B
:10017000340002010000050108010B010505050519
:10018000070508080808020202020A0A080804040F
:10019000040401010101010101010303030303033D
:1001A0000303040707070C0C0C0C0C0C0C0C0202CC
:1001B000020206060606060606060B0B0B0B0B0BC9
:1001C0000B0B010210202008081020401020408056
:1001D000020102010804020101020408102040800B
:1001E0008040201008040201800402018040201099
:1001F00008040201080402010102040810204080E2
:10020000010204081020408000000A0B02090C0DB6
:100210000E080703040100000000000000000000B9
:1002200000000000000000000000000000000000CE
:10023000000000001211100000000000000000008B
:100240000000000000000000000000000000370671
:1002500011241FBECFEFD1E2DEBFCDBF00E00CBF47
:1002600022E0A8E2B2E001C01D92A43DB207E1F78E
:1002700012E0A0E0B2E0EAEEF1E100E00BBF02C064
:1002800007900D92A832B107D9F711E0C8E2D1E08A
:1002900000E006C021970109802FFE010E94D506CB
:1002A000C732D10780E00807A9F70E94F9030C9430
:1002B000F3080C940000AF92BF92CF92DF92EF92BE
:1002C000FF920F931F93CF93DF936C017B018B0100
:1002D000040F151FEB015E01AE18BF08C017D10750
:1002E00059F06991D601ED91FC910190F081E02DDA
:1002F000C6011995892B79F7C501DF91CF911F911F
:100300000F91FF90EF90DF90CF90BF90AF90089546
:10031000FC01538D448D252F30E0842F90E0821B0B
:10032000930B541710F0CF96089501970895FC0190
:10033000918D828D981761F0A28DAE0FBF2FB11DE8
:100340005D968C91928D9F5F9F73928F90E0089540
:100350008FEF9FEF08952FB7F89480912F0290911F
:100360003002A0913102B09132022FBF80933B0244
:1003700090933C02A0933D02B0933E0283E392E04F
:100380000E94970197FF26C02FB7F89480912F0203
:1003900090913002A0913102B09132022FBF409172
:1003A0003B0250913C0260913D0270913E02841BE1
:1003B000950BA60BB70B4091370250913802609114
:1003C000390270913A0284179507A607B707B0F271
:1003D0008FEF9FEF0895FC01918D828D981731F07A
:1003E000828DE80FF11D858D90E008958FEF9FEFCE
:1003F0000895FC01918D228D892F90E0805C9F4FA4
:10040000821B91098F739927089583E392E00E94DC
:10041000F90121E0892B09F420E0822F0895FC01E5
:10042000A48DA80FB92FB11DA35ABF4F2C91848D55
:1004300090E001968F739927848FA689B7892C93B2
:10044000A089B1898C91837080648C93938D848D05
:10045000981306C00288F389E02D80818F7D808308
:100460000895EF92FF920F931F93CF93DF93EC01C8
:1004700081E0888F9B8D8C8D98131AC0E889F9894B
:10048000808185FF15C09FB7F894EE89FF8960834E
:10049000E889F98980818370806480839FBF81E0CF
:1004A00090E0DF91CF911F910F91FF90EF90089511
:1004B000F62E0B8D10E00F5F1F4F0F731127E02EEC
:1004C0008C8D8E110CC00FB607FCFACFE889F98924
:1004D000808185FFF5CFCE010E940F02F1CFEB8D19
:1004E000EC0FFD2FF11DE35AFF4FF0829FB7F894F8
:1004F0000B8FEA89FB8980818062CFCFCF93DF9316
:10050000EC01888D8823B9F0AA89BB89E889F9892B
:100510008C9185FD03C0808186FD0DC00FB607FC60
:10052000F7CF8C9185FFF2CF808185FFEDCFCE0193
:100530000E940F02E9CFDF91CF91089580E090E013
:10054000892B29F00E94050281110E94000080E0A1
:1005500090E0892B49F080E090E0892B29F00E94FF
:10056000000081110E94000080E090E0892B49F09A
:1005700080E090E0892B29F00E94000081110E9408
:10058000000080E090E0892B49F080E090E0892B2A
:1005900029F00E94000081110C94000008953FB7DB
:1005A000F8948091290290912A02A0912B02B09197
:1005B0002C0226B5A89B05C02F3F19F00196A11D5E
:1005C000B11D3FBFBA2FA92F982F8827BC01CD019D
:1005D000620F711D811D911D42E0660F771F881FFC
:1005E000991F4A95D1F70895FC0180819181009768
:1005F00011F00C94790708950F931F93CF93DF9315
:10060000EC0188819981009759F02A813B81261756
:10061000370730F081E0DF91CF911F910F9108955E
:100620008B016F5F7F4F0E940208009759F09983FA
:1006300088831B830A832C813D81232B59F7FC017E
:100640001082E8CF80E0E7CFEF92FF920F931F93E5
:10065000CF93DF93EC017B018A01BA010E94FC0277
:1006600028813981811114C02115310519F0C90182
:100670000E947907198218821D821C821B821A82AD
:10068000CE01DF91CF911F910F91FF90EF900895D0
:100690001D830C83B701C9010E94EC08F1CF1F92A2
:1006A0000F920FB60F9211240BB60F922F933F9318
:1006B0004F935F936F937F938F939F93AF93BF936A
:1006C000EF93FF9383E392E00E940F02FF91EF917B
:1006D000BF91AF919F918F917F916F915F914F915A
:1006E0003F912F910F900BBE0F900FBE0F901F9058
:1006F00018951F920F920FB60F9211240BB60F92FE
:100700002F938F939F93EF93FF93E0914302F09188
:1007100044028081E0914902F0914A0282FD1DC0AD
:10072000908180914C028F5F8F7320914D028217D0
:1007300041F0E0914C02F0E0ED5CFD4F958F80932D
:100740004C02FF91EF919F918F912F910F900BBED3
:100750000F900FBE0F901F9018958081F2CF1F92BF
:100760000F920FB60F9211242F933F938F939F9365
:10077000AF93BF9380912F0290913002A0913102EC
:10078000B09132023091280223E0230F2D3758F523
:100790000196A11DB11D2093280280932F029093F2
:1007A0003002A0933102B0933202809129029091DD
:1007B0002A02A0912B02B0912C020196A11DB11D1D
:1007C0008093290290932A02A0932B02B0932C02CB
:1007D000BF91AF919F918F913F912F910F900FBE3D
:1007E0000F901F90189526E8230F0296A11DB11DAA
:1007F000D2CFCF93DF93CDB7DEB768970FB6F8941B
:10080000DEBF0FBECDBF789484B5826084BD84B551
:10081000816084BD85B5826085BD85B5816085BDFB
:1008200080916E00816080936E00109281008091B3
:10083000810082608093810080918100816080933B
:100840008100809180008160809380008091B10060
:1008500084608093B1008091B00081608093B0008B
:1008600080919100826080939100809191008160DD
:10087000809391008091900081608093900080919E
:10088000A10082608093A1008091A100816080938B
:10089000A1008091A00081608093A000809121013F
:1008A00082608093210180912101816080932101E8
:1008B0008091200181608093200180917A00846082
:1008C00080937A0080917A00826080937A00809190
:1008D0007A00816080937A0080917A0080688093AA
:1008E0007A001092C100E0914302F091440282E04C
:1008F0008083E0913F02F09140021082E09141023A
:10090000F09142028FEC808310924B02E0914702FB
:10091000F091480286E08083E0914502F091460222
:10092000808180618083E0914502F0914602808160
:1009300088608083E0914502F09146028081806862
:100940008083E0914502F091460280818F7D808313
:1009500084E690E0A0E0B0E0809337029093380204
:10096000A0933902B0933A024FEC242E41E0342E8A
:10097000F101249159E8A52E51E0B52EF50184919D
:10098000882399F090E0880F991FFC01E85BFE4FE7
:10099000A591B491FC01EE59FE4F859194918FB7CA
:1009A000F8949C91292B2C938FBF8E010F5F1F4FC2
:1009B00025E1822E22E0922E83E392E00E94F9014B
:1009C000181619060CF0DAC01A8219821C821B82D2
:1009D0001E821D8250E040E067E272E0C8010E9482
:1009E00024030E94AB0197FD1BC08B8B1C8AED80FA
:1009F000FE80FFEFEF1AFF0AB701C8010E94FC0258
:100A0000882379F329813A818D819E81BE016D5EB3
:100A10007F4F820F931F0E94EC08FE82ED82E1CF90
:100A200089819A81F12C70E0009719F00E94640688
:100A3000F62EF0922D0270932E02C8010E94F4024D
:100A4000F4018491F1012491F5019491992309F421
:100A500035C0882311F181508231F8F4E82FF0E09D
:100A60008827EA5CFA4F8F4F0C94D506ED05F10507
:100A70004805E505E9054D05F405FA05FE050406FA
:100A800008060C06120616064D051A062006240650
:100A9000809180008F7780938000E92FF0E0EE0F47
:100AA000FF1FEE59FE4FA591B4918FB7F8949C911A
:100AB000F110CEC0209529232C938FBF80912D0259
:100AC00090912E021C8A1B8A1E8A1D8A188E1F8AEC
:100AD0004AE0B8010E948B06F80101900020E9F776
:100AE0003197AF01401B510BB801CE0143960E94D4
:100AF00024031A8219821C821B821E821D824CE0F2
:100B000050E068E172E0C8010E9424036B887C8891
:100B10006114710409F49EC0EF88F88CE114F104AB
:100B2000B1F08D819E81E80EF91EB701C8010E94C7
:100B3000FC02882309F48EC029813A818D819E812F
:100B4000B301820F931F0E94EC08FE82ED824D815B
:100B50005E8169817A8183E392E00E945B0142E0D9
:100B600050E065E272E083E392E00E945B01C8011D
:100B70000E94F402CE0143960E94F4020E94CF022A
:100B80006B017C0184E6482E512C612C712C0E9453
:100B9000CF026C197D098E099F09683E734081055B
:100BA0009105A8F3F1E04F1A51086108710828EE89
:100BB000C20E23E0D21EE11CF11C41145104610459
:100BC000710429F70E949E02F7CE809180008F7DEC
:100BD00062CF80918000877F5ECF84B58F7784BDA0
:100BE0005CCF84B58F7DFBCF8091B0008F778093F1
:100BF000B00053CF8091B0008F7DF9CF80919000ED
:100C00008F778093900049CF809190008F7DF9CFAE
:100C100080919000877FF5CF8091A0008F7780939F
:100C2000A0003BCF8091A0008F7DF9CF8091A000E4
:100C3000877FF5CF809120018F77809320012DCF82
:100C4000809120018F7DF9CF80912001877FF5CFA2
:100C5000292B32CF89819A81009711F00E94790760
:100C60001A8219821E821D821C821B8270CFE3E3CE
:100C7000F2E01382128288EE93E0A0E0B0E0848379
:100C80009583A683B7838AE092E09183808385EC85
:100C900090E09587848784EC90E09787868780EC46
:100CA00090E0918B808B81EC90E0938B828B82EC37
:100CB00090E0958B848B86EC90E0978B868B118EE1
:100CC000128E138E148E08951F93FC019927882786
:100CD000BC01E89411911032E9F3193010F01E3084
:100CE000C8F31B3251F01D3249F4689406C00E94CB
:100CF0009606610F711D811D911D119110531A30BF
:100D0000B0F33EF490958095709561957F4F8F4F2D
:100D10009F4F1F910895BB274A3031F4992322F445
:100D2000BDE2909581959F4F0C94AC06592F482FAA
:100D3000372F262F660F771F881F991F660F771F83
:100D4000881F991F620F731F841F951F660F771FDF
:100D5000881F991F0895BB27FB015527AA27880FD5
:100D6000991FAA1FA41710F0A41B83955051B9F71F
:100D7000A05DAA3308F0A95DA193009779F7B1119E
:100D8000B1931192CB010C94C506DC01FC01672FD5
:100D900071917723E1F7329704C07C916D93708352
:100DA0006291AE17BF07C8F30895EE0FFF1F881FAB
:100DB0008BBF0790F691E02D19940F931F93CF935B
:100DC000DF938230910510F482E090E0E091D2024E
:100DD000F091D30230E020E0B0E0A0E0309799F449
:100DE0002115310509F44AC0281B390B243031057F
:100DF000D8F58A819B816115710589F1FB01938387
:100E00008283FE0111C04081518102811381481704
:100E10005907E0F04817590799F4109761F01296B6
:100E20000C93129713961C933296CF01DF91CF91BA
:100E30001F910F9108950093D2021093D302F4CF23
:100E40002115310551F04217530738F0A901DB0194
:100E50009A01BD01DF01F801C1CFEF01F9CF9093F5
:100E6000D3028093D202CDCFFE01E20FF31F819314
:100E700091932250310939832883D7CF2091D00212
:100E80003091D102232B41F42091020230910302D0
:100E90003093D1022093D0022091000230910102C0
:100EA0002115310541F42DB73EB740910402509110
:100EB0000502241B350BE091D002F091D102E2171C
:100EC000F307A0F42E1B3F0B2817390778F0AC016D
:100ED0004E5F5F4F2417350748F04E0F5F1F50934A
:100EE000D1024093D002819391939FCFF0E0E0E054
:100EF0009CCFCF93DF930097E9F0FC0132971382E8
:100F00001282A091D202B091D302ED0130E020E034
:100F10001097A1F420813181820F931F2091D0027C
:100F20003091D1022817390709F061C0F093D1023E
:100F3000E093D002DF91CF910895EA01CE17DF0749
:100F4000E8F54A815B819E0141155105B1F7E90140
:100F5000FB83EA8349915991C40FD51FEC17FD0714
:100F600061F4808191810296840F951FE901998334
:100F70008883828193819B838A83F0E0E0E01296EC
:100F80008D919C9113970097B9F52D913C911197F4
:100F9000CD010296820F931F2091D0023091D10291
:100FA0002817390739F6309751F51092D30210926D
:100FB000D202B093D102A093D002BCCFD383C2831C
:100FC00040815181840F951FC817D90761F44E5F86
:100FD0005F4F88819981480F591F518340838A81CF
:100FE0009B81938382832115310509F0B0CFF09363
:100FF000D302E093D2029ECFFD01DC01C0CF138269
:101000001282D7CF4F925F926F927F928F929F9270
:10101000AF92BF92CF92DF92EF92FF920F931F9306
:10102000CF93DF938C01009799F4CB01DF91CF919F
:101030001F910F91FF90EF90DF90CF90BF90AF90F6
:101040009F908F907F906F905F904F900C94DD06F3
:10105000FC01E60FF71F9C0122503109E217F3074C
:1010600008F4AEC0D901CD91DC911197C617D7070E
:1010700020F1C530D10578F0CE0104978617970787
:1010800050F0C61BD70B2297C193D1936D937C93DD
:10109000CF010E947907C801DF91CF911F910F9175
:1010A000FF90EF90DF90CF90BF90AF909F908F9088
:1010B0007F906F905F904F9008955B01AC1ABD0ACE
:1010C0004C018C0E9D1EA091D202B091D302512CE6
:1010D000412CF12CE12C109731F58091D0029091A8
:1010E000D1028815990509F05CC04616570608F02C
:1010F00058C08091000290910102009741F48DB791
:101100009EB74091040250910502841B950BE8178D
:10111000F90708F055C0F093D102E093D002F9012D
:1011200071836083B8CF8D919C91119712966C90CA
:10113000129713967C901397A815B90559F56C0171
:1011400042E0C40ED11CCA14DB0420F1AC014A19E0
:101150005B09DA011296159780F0628273825183DF
:101160004083D9016D937C93E114F10471F0D701B0
:101170001396FC93EE9312978ECF22968C0F9D1FA1
:10118000F90191838083F301EFCFF093D302E093D1
:10119000D20281CF4816590608F42C017D01D301F3
:1011A0009ACFCB010E94DD067C01009749F0AE0189
:1011B000B8010E94E308C8010E94790787016BCF3C
:1011C00010E000E068CFFB01DC0102C001900D924D
:1011D00041505040D8F70895FB01DC0101900D9279
:0A11E0000020E1F70895F894FFCF16
:1011EA000000D40280000000000031025B01880187
:1011FA007E02F9019701EB0153652072656369620A
:08120A00696F3A20000D0A0093
:00000001FF
