:100000000C9483000C94B4000C94B4000C94B400D1
:100010000C94B4000C94B4000C94B4000C94B40090
:100020000C94B4000C94B4000C94B4000C94B40080
:100030000C94B4000C94B4000C94B4000C94B40070
:100040000C94B4000C94B4000C94B4000C94B40060
:100050000C94B4000C94B4000C94B4000C946F0293
:100060000C94B4000C9439020C940F020C94B4005C
:100070000C94B4000C94B4000C94B4000C94B40030
:100080000C94B4000C94B4000C94B4000C94B40020
:100090000C94B4000C94B4000C94B4000C94B40010
:1000A0000C94B4000C94B4000C94B4000C94B40000
:1000B0000C94B4000C94B4000C94B4000C94B400F0
:1000C0000C94B4000C94B4000C94B4000C94B400E0
:1000D0000C94B4000C94B4000C94B4000C94B400D0
:1000E0000C94B4000C9406010C9499010C94F20049
:1000F0000C94E3000C944C010C94B6000C94950302
:100100000C941401950311241FBECFEFD1E2DEBF82
:10011000CDBF00E00CBF12E0A0E0B2E0E8E9F7E0FC
:1001200000E00BBF02C007900D92AE31B107D9F7C6
:1001300022E0AEE1B2E001C01D92A43CB207E1F7BB
:1001400010E0C3E8D0E000E006C021970109802F4D
:10015000FE010E94C203C238D10780E00807A9F758
:100160000E94B9020C94CA030C940000AF92BF9293
:10017000CF92DF92EF92FF920F931F93CF93DF9373
:100180006C017B018B01040F151FEB015E01AE18A2
:10019000BF08C017D10759F06991D601ED91FC91C4
:1001A0000190F081E02DC6011995892B79F7C501E1
:1001B000DF91CF911F910F91FF90EF90DF90CF9043
:1001C000BF90AF900895FC01538D448D252F30E0F2
:1001D000842F90E0821B930B541710F0CF96089554
:1001E00001970895FC01918D828D981761F0A28D81
:1001F000AE0FBF2FB11D5D968C91928D9F5F9F7347
:10020000928F90E008958FEF9FEF0895FC01918DFC
:10021000828D981731F0828DE80FF11D858D90E069
:1002200008958FEF9FEF0895FC01918D228D892F06
:1002300090E0805C9F4F821B91098F7399270895EE
:1002400087E292E00E94140121E0892B09F420E06A
:10025000822F0895FC01A48DA80FB92FB11DA35AB8
:10026000BF4F2C91848D90E001968F739927848FD6
:10027000A689B7892C93A089B1898C9183708064F9
:100280008C93938D848D981306C00288F389E02D9A
:1002900080818F7D80830895EF92FF920F931F934B
:1002A000CF93DF93EC0181E0888F9B8D8C8D981329
:1002B0001AC0E889F989808185FF15C09FB7F89435
:1002C000EE89FF896083E889F98980818370806481
:1002D00080839FBF81E090E0DF91CF911F910F91CC
:1002E000FF90EF900895F62E0B8D10E00F5F1F4FDB
:1002F0000F731127E02E8C8D8E110CC00FB607FCEA
:10030000FACFE889F989808185FFF5CFCE010E9477
:100310002A01F1CFEB8DEC0FFD2FF11DE35AFF4FBA
:10032000F0829FB7F8940B8FEA89FB898081806205
:10033000CFCFCF93DF93EC01888D8823B9F0AA89C2
:10034000BB89E889F9898C9185FD03C0808186FD90
:100350000DC00FB607FCF7CF8C9185FFF2CF8081DF
:1003600085FFEDCFCE010E942A01E9CFDF91CF9129
:10037000089580E090E0892B29F00E9420018111EE
:100380000E94000080E090E0892B49F080E090E03E
:10039000892B29F00E94000081110E94000080E05A
:1003A00090E0892B49F080E090E0892B29F00E94B1
:1003B000000081110E94000080E090E0892B49F04C
:1003C00080E090E0892B29F00E94000081110C94BC
:1003D000000008953FB7F894809123029091240281
:1003E000A0912502B091260226B5A89B05C02F3FFB
:1003F00019F00196A11DB11D3FBFBA2FA92F982F4B
:100400008827BC01CD01620F711D811D911D42E045
:10041000660F771F881F991F4A95D1F708951F927D
:100420000F920FB60F9211240BB60F922F933F939A
:100430004F935F936F937F938F939F93AF93BF93EC
:10044000EF93FF9387E292E00E942A01FF91EF91E0
:10045000BF91AF919F918F917F916F915F914F91DC
:100460003F912F910F900BBE0F900FBE0F901F90DA
:1004700018951F920F920FB60F9211240BB60F9280
:100480002F938F939F93EF93FF93E0913702F09117
:1004900038028081E0913D02F0913E0282FD1DC054
:1004A0009081809140028F5F8F732091410282176B
:1004B00041F0E0914002F0E0E95DFD4F958F8093BF
:1004C0004002FF91EF919F918F912F910F900BBE62
:1004D0000F900FBE0F901F9018958081F2CF1F9242
:1004E0000F920FB60F9211242F933F938F939F93E8
:1004F000AF93BF9380911F0290912002A09121029F
:10050000B091220230911E0223E0230F2D3758F5BF
:100510000196A11DB11D20931E0280931F0290938E
:100520002002A0932102B093220280912302909195
:100530002402A0912502B09126020196A11DB11DB1
:100540008093230290932402A0932502B093260265
:10055000BF91AF919F918F913F912F910F900FBEBF
:100560000F901F90189526E8230F0296A11DB11D2C
:10057000D2CF789484B5826084BD84B5816084BD17
:1005800085B5826085BD85B5816085BD80916E0031
:10059000816080936E001092810080918100826062
:1005A000809381008091810081608093810080919F
:1005B00080008160809380008091B100846080938E
:1005C000B1008091B00081608093B0008091910073
:1005D000826080939100809191008160809391006E
:1005E000809190008160809390008091A100826052
:1005F0008093A1008091A10081608093A1008091EF
:10060000A00081608093A00080912101826080938E
:10061000210180912101816080932101809120013D
:1006200081608093200180917A00846080937A00B9
:1006300080917A00826080937A0080917A00816054
:1006400080937A0080917A00806880937A0010927B
:10065000C100E0913702F091380282E08083E0919E
:100660003302F09134021082E0913502F0913602AB
:100670008FEC808310923F02E0913B02F0913C02AC
:1006800086E08083E0913902F0913A0280818061B6
:100690008083E0913902F0913A0280818860808302
:1006A000E0913902F0913A02808180688083E09184
:1006B0003902F0913A0280818F7D808348E050E0DA
:1006C00062E172E087E292E00E94B60042E050E010
:1006D0006BE172E087E292E00E94B6000E94EA01BC
:1006E0004B015C0184E6C82ED12CE12CF12C0E9438
:1006F000EA01681979098A099B09683E73408105F6
:100700009105A8F321E0C21AD108E108F10888EEAA
:10071000880E83E0981EA11CB11CC114D104E10411
:10072000F10429F70E94B901C9CFE7E2F2E0138290
:10073000128288EE93E0A0E0B0E084839583A683E4
:10074000B78384E092E09183808385EC90E0958785
:10075000848784EC90E09787868780EC90E0918B8B
:10076000808B81EC90E0938B828B82EC90E0958B78
:10077000848B86EC90E0978B868B118E128E138E75
:10078000148E0895EE0FFF1F881F8BBF0790F69100
:08079000E02D1994F894FFCF4D
:10079800000000004C01B600E30099011401F200CA
:0E07A8000601522E532E532E422E000D0A0033
:00000001FF
